{
  "_format": "hh-sol-artifact-1",
  "contractName": "SingleSwapToken",
  "sourceName": "contracts/SwapToken.sol",
  "abi": [
    {
      "inputs": [],
      "name": "DAI",
      "outputs": [
        {
          "internalType": "address",
          "name": "",
          "type": "address"
        }
      ],
      "stateMutability": "view",
      "type": "function"
    },
    {
      "inputs": [],
      "name": "USDC",
      "outputs": [
        {
          "internalType": "address",
          "name": "",
          "type": "address"
        }
      ],
      "stateMutability": "view",
      "type": "function"
    },
    {
      "inputs": [],
      "name": "WETH9",
      "outputs": [
        {
          "internalType": "address",
          "name": "",
          "type": "address"
        }
      ],
      "stateMutability": "view",
      "type": "function"
    },
    {
      "inputs": [
        {
          "internalType": "uint256",
          "name": "amountIn",
          "type": "uint256"
        }
      ],
      "name": "swapExactInputSingle",
      "outputs": [
        {
          "internalType": "uint256",
          "name": "amountOut",
          "type": "uint256"
        }
      ],
      "stateMutability": "nonpayable",
      "type": "function"
    },
    {
      "inputs": [
        {
          "internalType": "uint256",
          "name": "amountOut",
          "type": "uint256"
        },
        {
          "internalType": "uint256",
          "name": "amountInMaximum",
          "type": "uint256"
        }
      ],
      "name": "swapExactOutputSingle",
      "outputs": [
        {
          "internalType": "uint256",
          "name": "amountIn",
          "type": "uint256"
        }
      ],
      "stateMutability": "nonpayable",
      "type": "function"
    },
    {
      "inputs": [],
      "name": "swapRouter",
      "outputs": [
        {
          "internalType": "contract ISwapRouter",
          "name": "",
          "type": "address"
        }
      ],
      "stateMutability": "view",
      "type": "function"
    }
  ],
  "bytecode": "0x608060405234801561001057600080fd5b5061096a806100206000396000f3fe608060405234801561001057600080fd5b50600436106100725760003560e01c8063c31c9c0711610050578063c31c9c07146100eb578063c4b69a1814610106578063e0bab4c41461011957600080fd5b80634aa4a4fc1461007757806373bd43ad146100af57806389a30271146100d0575b600080fd5b61009273c02aaa39b223fe8d0a0e5c4f27ead9083c756cc281565b6040516001600160a01b0390911681526020015b60405180910390f35b6100c26100bd3660046107e1565b610134565b6040519081526020016100a6565b61009273a0b86991c6218b36c1d19d4a2e9eb0ce3606eb4881565b61009273e592427a0aece92de3edee1f18e0157c0586156481565b6100c26101143660046107fa565b610286565b610092736b175474e89094c44da98b954eedeac495271d0f81565b600061015673c02aaa39b223fe8d0a0e5c4f27ead9083c756cc233308561043e565b61018973c02aaa39b223fe8d0a0e5c4f27ead9083c756cc273e592427a0aece92de3edee1f18e0157c0586156484610580565b604080516101008101825273c02aaa39b223fe8d0a0e5c4f27ead9083c756cc28152736b175474e89094c44da98b954eedeac495271d0f6020820152610bb88183015233606082015242608082015260a08101849052600060c0820181905260e082015290517f414bf38900000000000000000000000000000000000000000000000000000000815273e592427a0aece92de3edee1f18e0157c058615649063414bf3899061023c90849060040161081c565b6020604051808303816000875af115801561025b573d6000803e3d6000fd5b505050506040513d601f19601f8201168201806040525081019061027f9190610890565b9392505050565b60006102a873c02aaa39b223fe8d0a0e5c4f27ead9083c756cc233308561043e565b6102db73c02aaa39b223fe8d0a0e5c4f27ead9083c756cc273e592427a0aece92de3edee1f18e0157c0586156484610580565b604080516101008101825273c02aaa39b223fe8d0a0e5c4f27ead9083c756cc28152736b175474e89094c44da98b954eedeac495271d0f6020820152610bb88183015233606082015242608082015260a0810185905260c08101849052600060e082015290517fdb3e219800000000000000000000000000000000000000000000000000000000815273e592427a0aece92de3edee1f18e0157c058615649063db3e21989061038e90849060040161081c565b6020604051808303816000875af11580156103ad573d6000803e3d6000fd5b505050506040513d601f19601f820116820180604052508101906103d19190610890565b9150828210156104375761040f73c02aaa39b223fe8d0a0e5c4f27ead9083c756cc273e592427a0aece92de3edee1f18e0157c058615646000610580565b61043773c02aaa39b223fe8d0a0e5c4f27ead9083c756cc23361043285876108a9565b6106b4565b5092915050565b604080516001600160a01b0385811660248301528481166044830152606480830185905283518084039091018152608490920183526020820180516001600160e01b03167f23b872dd0000000000000000000000000000000000000000000000000000000017905291516000928392908816916104bb91906108e3565b6000604051808303816000865af19150503d80600081146104f8576040519150601f19603f3d011682016040523d82523d6000602084013e6104fd565b606091505b50915091508180156105275750805115806105275750808060200190518101906105279190610912565b6105785760405162461bcd60e51b815260206004820152600360248201527f535446000000000000000000000000000000000000000000000000000000000060448201526064015b60405180910390fd5b505050505050565b604080516001600160a01b038481166024830152604480830185905283518084039091018152606490920183526020820180516001600160e01b03167f095ea7b30000000000000000000000000000000000000000000000000000000017905291516000928392908716916105f591906108e3565b6000604051808303816000865af19150503d8060008114610632576040519150601f19603f3d011682016040523d82523d6000602084013e610637565b606091505b50915091508180156106615750805115806106615750808060200190518101906106619190610912565b6106ad5760405162461bcd60e51b815260206004820152600260248201527f5341000000000000000000000000000000000000000000000000000000000000604482015260640161056f565b5050505050565b604080516001600160a01b038481166024830152604480830185905283518084039091018152606490920183526020820180516001600160e01b03167fa9059cbb00000000000000000000000000000000000000000000000000000000179052915160009283929087169161072991906108e3565b6000604051808303816000865af19150503d8060008114610766576040519150601f19603f3d011682016040523d82523d6000602084013e61076b565b606091505b50915091508180156107955750805115806107955750808060200190518101906107959190610912565b6106ad5760405162461bcd60e51b815260206004820152600260248201527f5354000000000000000000000000000000000000000000000000000000000000604482015260640161056f565b6000602082840312156107f357600080fd5b5035919050565b6000806040838503121561080d57600080fd5b50508035926020909101359150565b610100810161088a82846001600160a01b0380825116835280602083015116602084015262ffffff60408301511660408401528060608301511660608401526080820151608084015260a082015160a084015260c082015160c08401528060e08301511660e0840152505050565b92915050565b6000602082840312156108a257600080fd5b5051919050565b8181038181111561088a577f4e487b7100000000000000000000000000000000000000000000000000000000600052601160045260246000fd5b6000825160005b8181101561090457602081860181015185830152016108ea565b506000920191825250919050565b60006020828403121561092457600080fd5b8151801515811461027f57600080fdfea264697066735822122070de3fc51638d4235dfcb7db73618e1c674fd6850a9741cdbe5c5b86b5da7bce64736f6c63430008110033",
  "linkReferences": {},
  "deployedLinkReferences": {}
}