{
  "_format": "hh-sol-artifact-1",
  "contractName": "SingleSwapToken",
  "sourceName": "contracts/SwapToken.sol",
  "abi": [
    {
      "anonymous": false,
      "inputs": [
        {
          "indexed": true,
          "internalType": "address",
          "name": "user",
          "type": "address"
        },
        {
          "indexed": false,
          "internalType": "uint256",
          "name": "amountIn",
          "type": "uint256"
        },
        {
          "indexed": false,
          "internalType": "uint256",
          "name": "amountOut",
          "type": "uint256"
        }
      ],
      "name": "SwapCompleted",
      "type": "event"
    },
    {
      "inputs": [
        {
          "internalType": "address",
          "name": "token1",
          "type": "address"
        },
        {
          "internalType": "address",
          "name": "token2",
          "type": "address"
        },
        {
          "internalType": "uint256",
          "name": "amountIn",
          "type": "uint256"
        }
      ],
      "name": "swapExactInputSingle",
      "outputs": [
        {
          "internalType": "uint256",
          "name": "amountOut",
          "type": "uint256"
        }
      ],
      "stateMutability": "nonpayable",
      "type": "function"
    },
    {
      "inputs": [
        {
          "internalType": "address",
          "name": "token1",
          "type": "address"
        },
        {
          "internalType": "address",
          "name": "token2",
          "type": "address"
        },
        {
          "internalType": "uint256",
          "name": "amountOut",
          "type": "uint256"
        },
        {
          "internalType": "uint256",
          "name": "amountInMaximum",
          "type": "uint256"
        }
      ],
      "name": "swapExactOutputSingle",
      "outputs": [
        {
          "internalType": "uint256",
          "name": "amountIn",
          "type": "uint256"
        }
      ],
      "stateMutability": "nonpayable",
      "type": "function"
    },
    {
      "inputs": [],
      "name": "swapRouter",
      "outputs": [
        {
          "internalType": "contract ISwapRouter",
          "name": "",
          "type": "address"
        }
      ],
      "stateMutability": "view",
      "type": "function"
    },
    {
      "stateMutability": "payable",
      "type": "receive"
    }
  ],
  "bytecode": "0x608060405234801561001057600080fd5b50610e4e806100206000396000f3fe6080604052600436106100385760003560e01c8063bc96faa914610044578063c31c9c071461007a578063ceb920121461009c5761003f565b3661003f57005b600080fd5b34801561005057600080fd5b5061006461005f366004610bd9565b6100bc565b6040516100719190610e01565b60405180910390f35b34801561008657600080fd5b5061008f6103b5565b6040516100719190610ca3565b3480156100a857600080fd5b506100646100b7366004610b9e565b6103cd565b600073ffffffffffffffffffffffffffffffffffffffff8516158015906100f8575073ffffffffffffffffffffffffffffffffffffffff841615155b61011d5760405162461bcd60e51b815260040161011490610db5565b60405180910390fd5b6000831161013d5760405162461bcd60e51b815260040161011490610d21565b6040517f70a0823100000000000000000000000000000000000000000000000000000000815260009073ffffffffffffffffffffffffffffffffffffffff8716906370a0823190610192903390600401610ca3565b60206040518083038186803b1580156101aa57600080fd5b505afa1580156101be573d6000803e3d6000fd5b505050506040513d601f19601f820116820180604052508101906101e29190610c1a565b9050828110156102045760405162461bcd60e51b815260040161011490610d7e565b61021086333086610687565b61022f8673e592427a0aece92de3edee1f18e0157c0586156485610834565b604080516101008101825273ffffffffffffffffffffffffffffffffffffffff808916825287166020820152610bb88183015233606082015242608082015260a0810186905260c08101859052600060e082015290517fdb3e219800000000000000000000000000000000000000000000000000000000815273e592427a0aece92de3edee1f18e0157c058615649063db3e2198906102d2908490600401610dec565b602060405180830381600087803b1580156102ec57600080fd5b505af1158015610300573d6000803e3d6000fd5b505050506040513d601f19601f820116820180604052508101906103249190610c1a565b92508383101561035b5761034e8773e592427a0aece92de3edee1f18e0157c058615646000610834565b61035b87338587036109d8565b3373ffffffffffffffffffffffffffffffffffffffff167f68c14902a77c0b779e8d12c5eadac21e74962f4e4efaa8a01582d13b3945ae7f84876040516103a3929190610e0a565b60405180910390a25050949350505050565b73e592427a0aece92de3edee1f18e0157c0586156481565b600073ffffffffffffffffffffffffffffffffffffffff841615801590610409575073ffffffffffffffffffffffffffffffffffffffff831615155b6104255760405162461bcd60e51b815260040161011490610db5565b600082116104455760405162461bcd60e51b815260040161011490610cc4565b6040517f70a0823100000000000000000000000000000000000000000000000000000000815260009073ffffffffffffffffffffffffffffffffffffffff8616906370a082319061049a903390600401610ca3565b60206040518083038186803b1580156104b257600080fd5b505afa1580156104c6573d6000803e3d6000fd5b505050506040513d601f19601f820116820180604052508101906104ea9190610c1a565b90508281101561050c5760405162461bcd60e51b815260040161011490610d7e565b61051885333086610687565b6105378573e592427a0aece92de3edee1f18e0157c0586156485610834565b604080516101008101825273ffffffffffffffffffffffffffffffffffffffff808816825286166020820152610bb88183015233606082015242608082015260a08101859052600060c0820181905260e082015290517f414bf38900000000000000000000000000000000000000000000000000000000815273e592427a0aece92de3edee1f18e0157c058615649063414bf389906105da908490600401610dec565b602060405180830381600087803b1580156105f457600080fd5b505af1158015610608573d6000803e3d6000fd5b505050506040513d601f19601f8201168201806040525081019061062c9190610c1a565b92503373ffffffffffffffffffffffffffffffffffffffff167f68c14902a77c0b779e8d12c5eadac21e74962f4e4efaa8a01582d13b3945ae7f8585604051610676929190610e0a565b60405180910390a250509392505050565b6040805173ffffffffffffffffffffffffffffffffffffffff85811660248301528481166044830152606480830185905283518084039091018152608490920183526020820180517bffffffffffffffffffffffffffffffffffffffffffffffffffffffff167f23b872dd00000000000000000000000000000000000000000000000000000000178152925182516000948594938a169392918291908083835b602083106107465780518252601f199092019160209182019101610727565b6001836020036101000a0380198251168184511680821785525050505050509050019150506000604051808303816000865af19150503d80600081146107a8576040519150601f19603f3d011682016040523d82523d6000602084013e6107ad565b606091505b50915091508180156107db5750805115806107db57508080602001905160208110156107d857600080fd5b50515b61082c576040805162461bcd60e51b815260206004820152600360248201527f5354460000000000000000000000000000000000000000000000000000000000604482015290519081900360640190fd5b505050505050565b6040805173ffffffffffffffffffffffffffffffffffffffff8481166024830152604480830185905283518084039091018152606490920183526020820180517bffffffffffffffffffffffffffffffffffffffffffffffffffffffff167f095ea7b3000000000000000000000000000000000000000000000000000000001781529251825160009485949389169392918291908083835b602083106108eb5780518252601f1990920191602091820191016108cc565b6001836020036101000a0380198251168184511680821785525050505050509050019150506000604051808303816000865af19150503d806000811461094d576040519150601f19603f3d011682016040523d82523d6000602084013e610952565b606091505b5091509150818015610980575080511580610980575080806020019051602081101561097d57600080fd5b50515b6109d1576040805162461bcd60e51b815260206004820152600260248201527f5341000000000000000000000000000000000000000000000000000000000000604482015290519081900360640190fd5b5050505050565b6040805173ffffffffffffffffffffffffffffffffffffffff8481166024830152604480830185905283518084039091018152606490920183526020820180517bffffffffffffffffffffffffffffffffffffffffffffffffffffffff167fa9059cbb000000000000000000000000000000000000000000000000000000001781529251825160009485949389169392918291908083835b60208310610a8f5780518252601f199092019160209182019101610a70565b6001836020036101000a0380198251168184511680821785525050505050509050019150506000604051808303816000865af19150503d8060008114610af1576040519150601f19603f3d011682016040523d82523d6000602084013e610af6565b606091505b5091509150818015610b24575080511580610b245750808060200190516020811015610b2157600080fd5b50515b6109d1576040805162461bcd60e51b815260206004820152600260248201527f5354000000000000000000000000000000000000000000000000000000000000604482015290519081900360640190fd5b803573ffffffffffffffffffffffffffffffffffffffff81168114610b9957600080fd5b919050565b600080600060608486031215610bb2578283fd5b610bbb84610b75565b9250610bc960208501610b75565b9150604084013590509250925092565b60008060008060808587031215610bee578081fd5b610bf785610b75565b9350610c0560208601610b75565b93969395505050506040820135916060013590565b600060208284031215610c2b578081fd5b5051919050565b73ffffffffffffffffffffffffffffffffffffffff80825116835280602083015116602084015262ffffff60408301511660408401528060608301511660608401526080820151608084015260a082015160a084015260c082015160c08401528060e08301511660e0840152505050565b73ffffffffffffffffffffffffffffffffffffffff91909116815260200190565b60208082526022908201527f416d6f756e7420696e2073686f756c642062652067726561746572207468616e60408201527f2030000000000000000000000000000000000000000000000000000000000000606082015260800190565b60208082526023908201527f416d6f756e74206f75742073686f756c6420626520677265617465722074686160408201527f6e20300000000000000000000000000000000000000000000000000000000000606082015260800190565b6020808252601a908201527f496e73756666696369656e7420746f6b656e2062616c616e6365000000000000604082015260600190565b60208082526015908201527f496e76616c696420746f6b656e20616464726573730000000000000000000000604082015260600190565b6101008101610dfb8284610c32565b92915050565b90815260200190565b91825260208201526040019056fea2646970667358221220f1f819ff56d3438fc1fd58f2f57c93aa1c69e77e69b29fc4e89a02ec5372481664736f6c63430007060033",
  "linkReferences": {},
  "deployedLinkReferences": {}
}