{
  "_format": "hh-sol-artifact-1",
  "contractName": "SingleSwapToken",
  "sourceName": "contracts/SwapToken.sol",
  "abi": [
    {
      "anonymous": false,
      "inputs": [
        {
          "indexed": true,
          "internalType": "address",
          "name": "user",
          "type": "address"
        },
        {
          "indexed": false,
          "internalType": "uint256",
          "name": "amountIn",
          "type": "uint256"
        },
        {
          "indexed": false,
          "internalType": "uint256",
          "name": "amountOut",
          "type": "uint256"
        }
      ],
      "name": "SwapCompleted",
      "type": "event"
    },
    {
      "inputs": [
        {
          "internalType": "address",
          "name": "token1",
          "type": "address"
        },
        {
          "internalType": "address",
          "name": "token2",
          "type": "address"
        },
        {
          "internalType": "uint256",
          "name": "amountIn",
          "type": "uint256"
        }
      ],
      "name": "swapExactInputSingle",
      "outputs": [
        {
          "internalType": "uint256",
          "name": "amountOut",
          "type": "uint256"
        }
      ],
      "stateMutability": "nonpayable",
      "type": "function"
    },
    {
      "inputs": [
        {
          "internalType": "address",
          "name": "token1",
          "type": "address"
        },
        {
          "internalType": "address",
          "name": "token2",
          "type": "address"
        },
        {
          "internalType": "uint256",
          "name": "amountOut",
          "type": "uint256"
        },
        {
          "internalType": "uint256",
          "name": "amountInMaximum",
          "type": "uint256"
        }
      ],
      "name": "swapExactOutputSingle",
      "outputs": [
        {
          "internalType": "uint256",
          "name": "amountIn",
          "type": "uint256"
        }
      ],
      "stateMutability": "nonpayable",
      "type": "function"
    },
    {
      "inputs": [],
      "name": "swapRouter",
      "outputs": [
        {
          "internalType": "contract ISwapRouter",
          "name": "",
          "type": "address"
        }
      ],
      "stateMutability": "view",
      "type": "function"
    },
    {
      "stateMutability": "payable",
      "type": "receive"
    }
  ],
  "bytecode": "0x608060405234801561001057600080fd5b50610d0d806100206000396000f3fe6080604052600436106100385760003560e01c8063bc96faa914610044578063c31c9c071461007a578063ceb920121461009c5761003f565b3661003f57005b600080fd5b34801561005057600080fd5b5061006461005f366004610ab2565b6100bc565b6040516100719190610cc0565b60405180910390f35b34801561008657600080fd5b5061008f61035b565b6040516100719190610b6f565b3480156100a857600080fd5b506100646100b7366004610a77565b610373565b60006001600160a01b038516158015906100de57506001600160a01b03841615155b6101035760405162461bcd60e51b81526004016100fa90610c74565b60405180910390fd5b600083116101235760405162461bcd60e51b81526004016100fa90610be0565b6040516370a0823160e01b81526000906001600160a01b038716906370a0823190610152903390600401610b6f565b60206040518083038186803b15801561016a57600080fd5b505afa15801561017e573d6000803e3d6000fd5b505050506040513d601f19601f820116820180604052508101906101a29190610af3565b9050828110156101c45760405162461bcd60e51b81526004016100fa90610c3d565b6101d0863330866105d3565b6101ef8673e592427a0aece92de3edee1f18e0157c058615648561075e565b60408051610100810182526001600160a01b03808916825287166020820152610bb88183015233606082015242608082015260a0810186905260c08101859052600060e082015290517fdb3e219800000000000000000000000000000000000000000000000000000000815273e592427a0aece92de3edee1f18e0157c058615649063db3e219890610285908490600401610cab565b602060405180830381600087803b15801561029f57600080fd5b505af11580156102b3573d6000803e3d6000fd5b505050506040513d601f19601f820116820180604052508101906102d79190610af3565b92508383101561030e576103018773e592427a0aece92de3edee1f18e0157c05861564600061075e565b61030e87338587036108e0565b336001600160a01b03167f68c14902a77c0b779e8d12c5eadac21e74962f4e4efaa8a01582d13b3945ae7f8487604051610349929190610cc9565b60405180910390a25050949350505050565b73e592427a0aece92de3edee1f18e0157c0586156481565b60006001600160a01b0384161580159061039557506001600160a01b03831615155b6103b15760405162461bcd60e51b81526004016100fa90610c74565b600082116103d15760405162461bcd60e51b81526004016100fa90610b83565b6040516370a0823160e01b81526000906001600160a01b038616906370a0823190610400903390600401610b6f565b60206040518083038186803b15801561041857600080fd5b505afa15801561042c573d6000803e3d6000fd5b505050506040513d601f19601f820116820180604052508101906104509190610af3565b9050828110156104725760405162461bcd60e51b81526004016100fa90610c3d565b61047e853330866105d3565b61049d8573e592427a0aece92de3edee1f18e0157c058615648561075e565b60408051610100810182526001600160a01b03808816825286166020820152610bb88183015233606082015242608082015260a08101859052600060c0820181905260e082015290517f414bf38900000000000000000000000000000000000000000000000000000000815273e592427a0aece92de3edee1f18e0157c058615649063414bf38990610533908490600401610cab565b602060405180830381600087803b15801561054d57600080fd5b505af1158015610561573d6000803e3d6000fd5b505050506040513d601f19601f820116820180604052508101906105859190610af3565b9250336001600160a01b03167f68c14902a77c0b779e8d12c5eadac21e74962f4e4efaa8a01582d13b3945ae7f85856040516105c2929190610cc9565b60405180910390a250509392505050565b604080516001600160a01b0385811660248301528481166044830152606480830185905283518084039091018152608490920183526020820180516001600160e01b03167f23b872dd00000000000000000000000000000000000000000000000000000000178152925182516000948594938a169392918291908083835b602083106106705780518252601f199092019160209182019101610651565b6001836020036101000a0380198251168184511680821785525050505050509050019150506000604051808303816000865af19150503d80600081146106d2576040519150601f19603f3d011682016040523d82523d6000602084013e6106d7565b606091505b5091509150818015610705575080511580610705575080806020019051602081101561070257600080fd5b50515b610756576040805162461bcd60e51b815260206004820152600360248201527f5354460000000000000000000000000000000000000000000000000000000000604482015290519081900360640190fd5b505050505050565b604080516001600160a01b038481166024830152604480830185905283518084039091018152606490920183526020820180516001600160e01b03167f095ea7b3000000000000000000000000000000000000000000000000000000001781529251825160009485949389169392918291908083835b602083106107f35780518252601f1990920191602091820191016107d4565b6001836020036101000a0380198251168184511680821785525050505050509050019150506000604051808303816000865af19150503d8060008114610855576040519150601f19603f3d011682016040523d82523d6000602084013e61085a565b606091505b5091509150818015610888575080511580610888575080806020019051602081101561088557600080fd5b50515b6108d9576040805162461bcd60e51b815260206004820152600260248201527f5341000000000000000000000000000000000000000000000000000000000000604482015290519081900360640190fd5b5050505050565b604080516001600160a01b038481166024830152604480830185905283518084039091018152606490920183526020820180516001600160e01b03167fa9059cbb000000000000000000000000000000000000000000000000000000001781529251825160009485949389169392918291908083835b602083106109755780518252601f199092019160209182019101610956565b6001836020036101000a0380198251168184511680821785525050505050509050019150506000604051808303816000865af19150503d80600081146109d7576040519150601f19603f3d011682016040523d82523d6000602084013e6109dc565b606091505b5091509150818015610a0a575080511580610a0a5750808060200190516020811015610a0757600080fd5b50515b6108d9576040805162461bcd60e51b815260206004820152600260248201527f5354000000000000000000000000000000000000000000000000000000000000604482015290519081900360640190fd5b80356001600160a01b0381168114610a7257600080fd5b919050565b600080600060608486031215610a8b578283fd5b610a9484610a5b565b9250610aa260208501610a5b565b9150604084013590509250925092565b60008060008060808587031215610ac7578081fd5b610ad085610a5b565b9350610ade60208601610a5b565b93969395505050506040820135916060013590565b600060208284031215610b04578081fd5b5051919050565b6001600160a01b0380825116835280602083015116602084015262ffffff60408301511660408401528060608301511660608401526080820151608084015260a082015160a084015260c082015160c08401528060e08301511660e0840152505050565b6001600160a01b0391909116815260200190565b60208082526022908201527f416d6f756e7420696e2073686f756c642062652067726561746572207468616e60408201527f2030000000000000000000000000000000000000000000000000000000000000606082015260800190565b60208082526023908201527f416d6f756e74206f75742073686f756c6420626520677265617465722074686160408201527f6e20300000000000000000000000000000000000000000000000000000000000606082015260800190565b6020808252601a908201527f496e73756666696369656e7420746f6b656e2062616c616e6365000000000000604082015260600190565b60208082526015908201527f496e76616c696420746f6b656e20616464726573730000000000000000000000604082015260600190565b6101008101610cba8284610b0b565b92915050565b90815260200190565b91825260208201526040019056fea264697066735822122062ec368625f3c19c53c9c5bf1b1f7c9f842ac985c769c73d50995a86f946c5ab64736f6c63430007060033",
  "linkReferences": {},
  "deployedLinkReferences": {}
}