{
  "_format": "hh-sol-artifact-1",
  "contractName": "SwapMultiHop",
  "sourceName": "contracts/SwapMultiHop.sol",
  "abi": [
    {
      "inputs": [],
      "name": "DAI",
      "outputs": [
        {
          "internalType": "address",
          "name": "",
          "type": "address"
        }
      ],
      "stateMutability": "view",
      "type": "function"
    },
    {
      "inputs": [],
      "name": "USDC",
      "outputs": [
        {
          "internalType": "address",
          "name": "",
          "type": "address"
        }
      ],
      "stateMutability": "view",
      "type": "function"
    },
    {
      "inputs": [],
      "name": "WETH9",
      "outputs": [
        {
          "internalType": "address",
          "name": "",
          "type": "address"
        }
      ],
      "stateMutability": "view",
      "type": "function"
    },
    {
      "inputs": [
        {
          "internalType": "uint256",
          "name": "amountIn",
          "type": "uint256"
        }
      ],
      "name": "swapExactInputMultihop",
      "outputs": [
        {
          "internalType": "uint256",
          "name": "amountOut",
          "type": "uint256"
        }
      ],
      "stateMutability": "nonpayable",
      "type": "function"
    },
    {
      "inputs": [
        {
          "internalType": "uint256",
          "name": "amountOut",
          "type": "uint256"
        },
        {
          "internalType": "uint256",
          "name": "amountInMaximum",
          "type": "uint256"
        }
      ],
      "name": "swapExactOutputMultihop",
      "outputs": [
        {
          "internalType": "uint256",
          "name": "amountIn",
          "type": "uint256"
        }
      ],
      "stateMutability": "nonpayable",
      "type": "function"
    },
    {
      "inputs": [],
      "name": "swapRouter",
      "outputs": [
        {
          "internalType": "contract ISwapRouter",
          "name": "",
          "type": "address"
        }
      ],
      "stateMutability": "view",
      "type": "function"
    }
  ],
  "bytecode": "0x608060405234801561001057600080fd5b50610969806100206000396000f3fe608060405234801561001057600080fd5b50600436106100725760003560e01c8063c31c9c0711610050578063c31c9c07146100f8578063e0bab4c414610113578063edd835571461012e57600080fd5b80633b85cf6a146100775780634aa4a4fc1461009d57806389a30271146100dd575b600080fd5b61008a6100853660046107b8565b610141565b6040519081526020015b60405180910390f35b6100b873c02aaa39b223fe8d0a0e5c4f27ead9083c756cc281565b60405173ffffffffffffffffffffffffffffffffffffffff9091168152602001610094565b6100b873a0b86991c6218b36c1d19d4a2e9eb0ce3606eb4881565b6100b873e592427a0aece92de3edee1f18e0157c0586156481565b6100b8736b175474e89094c44da98b954eedeac495271d0f81565b61008a61013c3660046107da565b610353565b600061016373c02aaa39b223fe8d0a0e5c4f27ead9083c756cc23330856104fe565b61019673c02aaa39b223fe8d0a0e5c4f27ead9083c756cc273e592427a0aece92de3edee1f18e0157c0586156484610662565b6040805160a0810182527f6b175474e89094c44da98b954eedeac495271d0f00000000000000000000000060c0820152601960ea1b60d48201527fa0b86991c6218b36c1d19d4a2e9eb0ce3606eb4800000000000000000000000060d782015261017760eb1b60eb8201527fc02aaa39b223fe8d0a0e5c4f27ead9083c756cc200000000000000000000000060ee820152815160e28183030181526101028201835281523360208201524281830152606081018590526080810184905290517ff28c049800000000000000000000000000000000000000000000000000000000815273e592427a0aece92de3edee1f18e0157c058615649063f28c0498906102a2908490600401610889565b6020604051808303816000875af11580156102c1573d6000803e3d6000fd5b505050506040513d601f19601f820116820180604052508101906102e5919061089c565b91508282101561034c5761032373c02aaa39b223fe8d0a0e5c4f27ead9083c756cc273e592427a0aece92de3edee1f18e0157c058615646000610662565b61034c73c02aaa39b223fe8d0a0e5c4f27ead9083c756cc2303361034786886108b5565b6104fe565b5092915050565b600061037573c02aaa39b223fe8d0a0e5c4f27ead9083c756cc23330856104fe565b6103a873c02aaa39b223fe8d0a0e5c4f27ead9083c756cc273e592427a0aece92de3edee1f18e0157c0586156484610662565b6040805160a0810182527fc02aaa39b223fe8d0a0e5c4f27ead9083c756cc200000000000000000000000060c082015261017760eb1b60d48201527fa0b86991c6218b36c1d19d4a2e9eb0ce3606eb4800000000000000000000000060d7820152601960ea1b60eb8201527f6b175474e89094c44da98b954eedeac495271d0f00000000000000000000000060ee820152815160e28183030181526101028201835281523360208201524281830152606081018490526000608082015290517fc04b8d5900000000000000000000000000000000000000000000000000000000815273e592427a0aece92de3edee1f18e0157c058615649063c04b8d59906104b4908490600401610889565b6020604051808303816000875af11580156104d3573d6000803e3d6000fd5b505050506040513d601f19601f820116820180604052508101906104f7919061089c565b9392505050565b6040805173ffffffffffffffffffffffffffffffffffffffff85811660248301528481166044830152606480830185905283518084039091018152608490920183526020820180517bffffffffffffffffffffffffffffffffffffffffffffffffffffffff167f23b872dd00000000000000000000000000000000000000000000000000000000179052915160009283929088169161059d91906108f5565b6000604051808303816000865af19150503d80600081146105da576040519150601f19603f3d011682016040523d82523d6000602084013e6105df565b606091505b50915091508180156106095750805115806106095750808060200190518101906106099190610911565b61065a5760405162461bcd60e51b815260206004820152600360248201527f535446000000000000000000000000000000000000000000000000000000000060448201526064015b60405180910390fd5b505050505050565b6040805173ffffffffffffffffffffffffffffffffffffffff8481166024830152604480830185905283518084039091018152606490920183526020820180517bffffffffffffffffffffffffffffffffffffffffffffffffffffffff167f095ea7b30000000000000000000000000000000000000000000000000000000017905291516000928392908716916106f991906108f5565b6000604051808303816000865af19150503d8060008114610736576040519150601f19603f3d011682016040523d82523d6000602084013e61073b565b606091505b50915091508180156107655750805115806107655750808060200190518101906107659190610911565b6107b15760405162461bcd60e51b815260206004820152600260248201527f53410000000000000000000000000000000000000000000000000000000000006044820152606401610651565b5050505050565b600080604083850312156107cb57600080fd5b50508035926020909101359150565b6000602082840312156107ec57600080fd5b5035919050565b60005b8381101561080e5781810151838201526020016107f6565b50506000910152565b6000815160a0845280518060a08601526108388160c08701602085016107f3565b60208481015173ffffffffffffffffffffffffffffffffffffffff16908601526040808501519086015260608085015190860152608093840151938501939093525050601f01601f19160160c00190565b6020815260006104f76020830184610817565b6000602082840312156108ae57600080fd5b5051919050565b818103818111156108ef577f4e487b7100000000000000000000000000000000000000000000000000000000600052601160045260246000fd5b92915050565b600082516109078184602087016107f3565b9190910192915050565b60006020828403121561092357600080fd5b815180151581146104f757600080fdfea26469706673582212207733cf82a6c1a23888354ea4de714ea724cf2f9aef2aff7abfff04d8ea00a3ec64736f6c63430008110033",
  "linkReferences": {},
  "deployedLinkReferences": {}
}